:100000000C94B6000C94DE0A0C940B0B0C94DE00DE
:100010000C94DE000C94DE000C94DE000C94DE00E8
:100020000C94DE000C94DE000C94DE000C94DE00D8
:100030000C94DE000C94DE000C94DE000C94DE00C8
:100040000C94D9090C94DE000C94520C0C94950C71
:100050000C94DE000C94DE000C94DE000C94DE00A8
:100060000C94DE000C94DE00200F213F223F23037E
:1000700024FF251726072707280029002CC32DC495
:100080002EC52FC631203220332034203520362093
:1000900037203C3F3D072A34431010012B393837B5
:1000A00036C2303443101001507320404B01E2211E
:1000B000C04B000022D0FC8C02239900394124D986
:1000C0009E860B2524067FA6260000000027000040
:1000D0000000280000000029000000002A000000A5
:1000E000002B000000002C001273052D36B4800098
:1000F0002E412008048120CFF7FEFFFF24DF9E86DB
:100100000B24D99E860B5053E200E100000000074B
:1001100000020100000304060000000000000000CF
:10012000010204081020408001020408102001028E
:10013000040810200404040404040404020202025B
:100140000202030303030303000000002300260050
:10015000290000000000250028002B0000000000FE
:10016000240027002A007A0170024B0D11241FBEC3
:10017000CFEFD8E0DEBFCDBF11E0A0E0B1E0EEE10F
:10018000F4E202C005900D92AA3BB107D9F713E043
:10019000AAEBB1E001C01D92AE37B107E1F711E063
:1001A000CCE6D1E004C02297FE010E94160FC636AD
:1001B000D107C9F70E94A90B0C940D120C940000F2
:1001C0006091000184E00E94790981E09091000132
:1001D000911180E0809300010895CF93DF938EE921
:1001E00092E00E94DA08EC0104969F938F932B8192
:1001F000822F992787FD90959F932F932A81822F95
:10020000992787FD90959F932F932981822F992776
:1002100087FD90959F932F932881822F992787FDA3
:1002200090959F932F938BE091E09F938F938AEB10
:1002300091E09F938F930E94380F6AEB71E080EDFD
:1002400092E00E94930B8EE992E00E94DF082DB7A6
:100250003EB7225F3F4F0FB6F8943EBF0FBE2DBF93
:10026000482FBE018CEE91E0DF91CF910C944A05AE
:100270008EE992E00C94B60840E855E260E070E048
:1002800080ED92E00E94D00C6CE171E080ED92E094
:100290000E94930B4AE563E08CEE91E00E94B60564
:1002A00041E561E08CEE91E00E94BA058EE992E0B2
:1002B0000E94B2086DEE70E08EE992E00E94D508CF
:1002C00042E050E068E371E080E00E94AE0A809175
:1002D0001A0290911B02DC01ED91FC910280F381E6
:1002E000E02D099561E084E00E9441098AED91E0EA
:1002F0000C94AF02CF93DF938BE290E00E94A70BA8
:10030000EC010E941D02D0931B02C0931A029E01B1
:100310004EE952E060E08CEE91E00E94A40420EEF1
:1003200030E048EE53E060E070E08AED91E0DF916C
:10033000CF910C94900280E090E0089584E492E0E4
:100340000C94F60281E00E94CE0A68EE73E080E031
:1003500090E00E944D0A83E00E94B009892B99F435
:1003600068EE73E080E090E00E944D0A83E00E9416
:10037000B009892B41F4609101017091020184E47C
:1003800092E00E94210342E050E062EA71E081E0E5
:100390000C94AE0ACF93DF931F92CDB7DEB7BC01AA
:1003A0008EE192E00E9493038823A9F0E0911C0261
:1003B000F0911D024CE068E271E0828193810E941D
:1003C000DA044CE068E271E08EE192E00F90DF9198
:1003D000CF910C94BC038EE192E00E94D203482F8F
:1003E0008EE192E049830E94CD03BC01E0911C02A2
:1003F000F0911D024981828193810F90DF91CF910D
:100400000C94DA041F93CF93DF93EB01142FFC01BC
:1004100087A190A5019769F484E492E00E94D80234
:10042000412FBE018EE192E0DF91CF911F910C949C
:100430006703DF91CF911F910895CF93DF93EC0174
:100440000E94C2058EE691E09983888381E090E066
:100450009AA789A718A61FA2CE010696FC0180E2E2
:10046000DF011D928A95E9F7C0931C02D0931D020B
:10047000DF91CF910895CF93DF93EC0165E371E0B5
:1004800080ED92E00E94930B8A819B810E940F0570
:10049000811107C060ED77E080E090E00E944D0A96
:1004A000F3CF63E471E080ED92E00E94930B8AE861
:1004B00092E00E94AF0281E090E098A78FA3DF91C5
:1004C000CF9108950E943B0262E083E00E944109BF
:1004D00042E050E062EA71E081E00E94AE0A0895D5
:1004E0002EE931E044EF51E060E070E08AE892E00C
:1004F0000E949002609101017091020184E492E0F7
:100500000E944C034AEC51E062E571E08EE192E01A
:100510000C94AA03DC011C96ED91FC911D970994A3
:10052000CF92DF92EF92FF920F931F93CF93DF93BF
:10053000EC016A017B0189012AE832E00E948B0408
:100540001D870C87CE86DF86E88AF98ADF91CF91F6
:100550001F910F91FF90EF90DF90CF900895BC0115
:100560008CE992E00C94F403DB010D900020E9F794
:10057000A61BFC01A0A301960C94230FFC0181A1F2
:100580008F5F81A380830895E0911C02F0911D028A
:10059000309741F0DC0190964C91BC0182819381AF
:1005A0000C94DA0464E771E080ED92E00C94930B14
:1005B000CF93DF93EC0148A150E0415051096C5FAB
:1005C0007F4F01960E942A0F81110DC08AA18130B0
:1005D00051F482E08AA361E871E080ED92E0DF915E
:1005E000CF910C94930BDF91CF910895CF93DF932C
:1005F000EC018AA1813069F48BA18F5F8BA3CE01BE
:100600000E94C4028BA18A3050F01BA21AA282E081
:1006100005C0823021F41AA21BA281E08CA381E0E4
:10062000DF91CF9108959C012B5D3F4FF90120E2AE
:10063000DF011D922A95E9F7FC01EB5BFF4F108269
:1006400008950F931F93CF93DF9300D0CDB7DEB7FC
:100650008C01FC0182A1811117C0C80169837A83D2
:100660000E94130369817A81C8010E94B40281E06B
:10067000F80182A3C8010E94BE02F80114A2C801B9
:100680000E94C40281E001C080E00F900F90DF91D2
:10069000CF911F910F9108950F931F93CF93DF93E5
:1006A00000D0CDB7DEB78C01FC0113A212A214A2B8
:1006B00069837A830E94130369817A81C8010F904C
:1006C0000F90DF91CF911F910F910C94B402FF9284
:1006D0000F931F93CF93DF93EC018B01F42E88814E
:1006E0009981DC01FD0101900020E9F7AF01415043
:1006F00051094A1B5B0B6B5F7F4F0E942A0F8111D0
:100700000CC0ECA1FDA1309741F06F2DC801DF9125
:10071000CF911F910F91FF900994DF91CF911F917D
:100720000F91FF900895FB012481FC013281321763
:1007300019F0228381E0089580E008959C012D5FE7
:100740003F4FF90120E2DF011D922A95E9F7FC01F4
:1007500013A208950F931F93CF93DF93EC018A01A7
:100760001A82798368830E949E031DA30CA3DF91E4
:10077000CF911F910F9108951F93CF93DF93EC01B9
:10078000142F9C012D5F3F4F50E0C9010E941A0FAA
:100790001BA3DF91CF911F9108959C012D5F3F4FC7
:1007A000C9010895FC0183A10895DC01ED91FC913C
:1007B00011973097C1F0E617F70789F42285338542
:1007C0002D933C9308958617970741F4DB011A9601
:1007D0008D919C911B97938782870895FC01828558
:1007E0009385009781F708950F931F93CF93DF931D
:1007F0008C01EB010E94D503D801ED91FC9111977A
:10080000309721F4CD93DC9307C0FC01828593855A
:100810000097D9F7D387C2870E94230A08811981DC
:100820002A813B81601B710B820B930B6C837D8350
:100830008E839F831B861A86DF91CF911F910F9124
:100840000895CF92DF92EF92FF92CF93DF93EB0167
:100850000E94230A6B017C014C815D816E817F8146
:1008600088819981AA81BB81480F591F6A1F7B1F0C
:10087000C416D506E606F70690F08C819D81AE8100
:10088000BF81481759076A077B07D8F48C819D817F
:10089000AE81BF81C816D906EA06FB0690F08C81AE
:1008A0009D81AE81BF81C816D906EA06FB0688F491
:1008B0008C819D81AE81BF81481759076A077B07EC
:1008C00040F0E885F985CE010995CC82DD82EE8283
:1008D000FF82DF91CF91FF90EF90DF90CF9008954E
:1008E0000F931F93CF93DF938C01FC01C081D181C3
:1008F00007C0BE01C8010E9421040A84DB85C02D07
:100900002097B9F7DF91CF911F910F9108958CE94E
:1009100092E00C947004CF93DF93FC01E901A8EE00
:10092000B3E09A01AB010E94DB0E60837183828386
:100930009383D187C087148215821682178213860B
:100940001286DF91CF910895CF93DF93FC01C90107
:100950006783613011F420EF01C020EE20879F01F2
:10096000265F3F4FD90120E2ED0119922A95E9F760
:1009700093A782A755A744A7BF01DF91CF910C94FD
:10098000C805FC01DB019C918381981311C011966D
:100990009C911197848198130BC012969C91129789
:1009A0008581981305C081E013962C9196812913B7
:1009B00080E00895FF920F931F93CF93DF93CDB7FD
:1009C000DEB7A0970FB6F894DEBF0FBECDBF8C0187
:1009D000F42EFC018581898386818A8383818B83C0
:1009E00084818C839E012B5F3F4F50E0C9010E94A0
:1009F0001A0F4F2D4C5FBE016F5F7F4FF80184A52A
:100A000095A50E94E208A0960FB6F894DEBF0FBE2F
:100A1000CDBFDF91CF911F910F91FF9008950F935C
:100A20001F93CF93DF9300D000D01F92CDB7DEB7D6
:100A30008C01FC018581898386818A8383818B83F4
:100A400084818C8381E38D8345E0BE016F5F7F4F9E
:100A500084A595A50E94E2086AE070E080E090E03D
:100A60000E944D0A21E030E0F8018085813E11F0BE
:100A700020E030E0C9010F900F900F900F900F9081
:100A8000DF91CF911F910F91089541E069E871E0E6
:100A90000C94DA04EF92FF920F931F93CF93DF939E
:100AA0001F92CDB7DEB77C018C01065F1F4F80E23D
:100AB000FB01D80101900D928A95E1F7B801C701B9
:100AC00049830E94C1044981882309F447C0D701A2
:100AD00017968C911797813009F51E962C911E97C9
:100AE0001B968C911B971A969C911A97213359F457
:100AF00013969C93139714968C93C7010E944505F7
:100B000081EFF70115C0D70113969C9313971496A4
:100B10008C93149781EF18968C930CC081110AC0A6
:100B2000F7018085803E31F486858233B9F481EE09
:100B3000808714C0D7019A968D919C919B97DC0178
:100B4000ED91FC910190F081E02DB8010F90DF91C3
:100B5000CF911F910F91FF90EF9009940F90DF912B
:100B6000CF911F910F91FF90EF900895FC01658345
:100B700046830895FC0163834483089580E090E0F8
:100B8000089508952FE831E0FC0131832083089512
:100B9000FC01738362830895EF92FF921F93CF93BA
:100BA000DF931F92CDB7DEB77C01162F61E08DE099
:100BB00049830E94410961E08BE00E94410960E0A5
:100BC0008CE00E94410961E0812F0E94410960E0B0
:100BD0008BE00E94790960E08DE00E94790961E074
:100BE000812F0E94790980E58CBD9CB54981842FB5
:100BF00083709C7F892B8CBD9DB542FB442740F9B7
:100C00009E7F942B9DBDF70110830F90DF91CF91B4
:100C10001F91FF90EF9008951F93CF93DF931F9242
:100C2000CDB7DEB7162FFC01618361E0812F4983C8
:100C30000E94410960E0812F0E94790960E04981AA
:100C4000842F0F90DF91CF911F910C9441098EBD9D
:100C50000DB407FEFDCF8EB50895CF92DF92EF92CF
:100C6000FF920F931F93CF93DF931F92CDB7DEB701
:100C70008C01E62EF42E60E0FC01808179830E94D5
:100C80007909CE2C7981D72EFE0C07C0F6018FEFA3
:100C9000C81AD80A84910E942706FC10F7CF61E099
:100CA000F80180810E9479090F90DF91CF911F9107
:100CB0000F91FF90EF90DF90CF90089542E06AE0AF
:100CC00071E00C942D06EF92FF921F93CF93DF9368
:100CD0001F92CDB7DEB77C01162F60E0FC0180814A
:100CE00049830E947909812F0E9427064981842F18
:100CF0000E94270661E0F70180810E9479090F9028
:100D0000DF91CF911F91FF90EF900895CF92DF92E6
:100D1000EF92FF920F931F93CF93DF931F92CDB764
:100D2000DEB78C01D62EF42EE22E60E0FC0180812D
:100D300059830E9479098D2D0E942706CF2C598155
:100D4000D52E06C080E00E942706F60181936F0130
:100D50008C2D8F198E15B0F361E0F80180810F9012
:100D6000DF91CF911F910F91FF90EF90DF90CF9087
:100D70000C9479091F93CF93DF93EC01162F60E059
:100D800088810E947909812F0E94270680E00E94B5
:100D90002706182F61E088810E947909812FDF9151
:100DA000CF911F910895EF92FF920F931F93CF93CE
:100DB000DF93EC018B0167E00E94BA06E82E86FF04
:100DC00018C060E6CE010E94BA06F82E282FA801AE
:100DD00061E6CE010E94860667E1CE010E94BA0656
:100DE00080FF08C04E2D406467E2CE010E9463067A
:100DF00001C0F12C8F2DDF91CF911F910F91FF90AA
:100E0000EF90089567E00E94BA0680710895CF932D
:100E1000DF93EC0167E00E94BA06482F406167E269
:100E2000CE01DF91CF910C946306CF93DF93EC0159
:100E300067E00E94BA06482F406267E2CE01DF9168
:100E4000CF910C946306CF93DF93EC0167E00E948F
:100E5000BA06482F406467E2CE01DF91CF910C942F
:100E60006306CF93DF93EC0142E06AE071E00E94F9
:100E70002D0660E089810E94790960E0CE010E9420
:100E8000BA06482F4E7F60E2CE010E94630661E001
:100E90008981DF91CF910C947909CF93DF93EC0195
:100EA00042E068E071E00E942D0667E0CE010E94FA
:100EB000BA06482F67E2CE010E94630660E089818E
:100EC0000E94790960E0CE010E94BA06482F416075
:100ED00060E2CE010E94630661E08981DF91CF91DB
:100EE0000C9479091F93CF93DF93EC01162F67E0E1
:100EF0000E94BA068078112359F081110BC042E09C
:100F000066E071E0CE01DF91CF911F910C942D0628
:100F10008111F5CFDF91CF911F910895DF92EF926C
:100F2000FF920F931F93CF93DF93CDB7DEB76497F4
:100F30000FB6F894DEBF0FBECDBF8C0160E00E94FB
:100F40007207E12CF12CB701660F771FFB01E759FF
:100F5000FF4F4491FB01E859FF4F6491C8010E9483
:100F600063068FEFE81AF80A84E1E816F10459F7EE
:100F700046E066E970E0C8010E942D0646E06CE993
:100F800070E0C8010E942D0646E062EA70E0C801E8
:100F90000E942D066DE1C8010E94BA06811106C0AB
:100FA00042E068EA70E0C8010E942D06E5E9F0E041
:100FB0004491E4E9F0E06491C8010E946306E3E92A
:100FC000F0E04491E2E9F0E06491C8010E94630618
:100FD00061E0C8010E947207E12CF12C35E0D32EAC
:100FE000DE9CB001DF9C700D112466557F4F45E0FB
:100FF000C8010E942D068FEFE81AF80A8EE0E81665
:10100000F10471F74CE060EF70E0C8010E942D061A
:1010100045E06CEF70E0C8010E942D0645E061E0FC
:1010200071E0C8010E942D0664E670E080E090E067
:101030000E944D0A68E0C8010E94BA0668E0C80133
:101040000E94BA061F928F9385E991E09F938F9338
:10105000EE24E394F12CEC0EFD1EFF92EF920E9421
:10106000380FB70180ED92E00E94930B60E0C80159
:101070000E947207C8010E944D070F900F900F90B9
:101080000F900F900F9064960FB6F894DEBF0FBECE
:10109000CDBFDF91CF911F910F91FF90EF90DF9027
:1010A0000895EF92FF920F93CF93DF931F92CDB7E6
:1010B000DEB77C0129830E940C06402F2981622F14
:1010C000C7010E94CC0568EB70E080E090E00E94D0
:1010D0004D0AC7010F90DF91CF910F91FF90EF90D4
:1010E0000C948E070F9304E02AE00E9451080F91A0
:1010F0000895DF92EF92FF920F931F93CF93DF93A8
:101100008C01F62ED72EE42EC22F67E10E94BA067C
:1011100085FD1CC060E0F80180810E947909C11141
:1011200007C080EB0E942706CF2DDD2DFE0C05C0E9
:1011300080EAF8CF89910E942706FC12FBCF61E07C
:10114000F80180810E94790981E001C080E0DF918F
:10115000CF911F910F91FF90EF90DF90089520E0C5
:101160000C94790842E068E00C947208CF93DF9306
:10117000EC01BC016E5F7F4F0E94D306803240F0CD
:101180008AA3E091C102F091C202309741F40AC0F3
:10119000FE01E80FF11D1282882321F0F1CFDF91CB
:1011A000CF910994DF91CF9108957093C20260931B
:1011B000C10208959C012E5F3F4FC9010895FC01B3
:1011C00082A10895EF92FF920F931F93CF93DF9325
:1011D0001F92CDB7DEB77C018B0149830E941507B2
:1011E000C7010E943107C7010E9402074981882375
:1011F00039F0C7010E945E06C7010E9407074981B6
:10120000B801C7010E94AF088DEF91E00197F1F797
:1012100000C00000C7010E942307C7010F90DF91A3
:10122000CF911F910F91FF90EF900C944D07833059
:1012300069F028F48130A1F0823011F514C08630B5
:10124000B1F08730C1F08430D9F404C080918000BF
:101250008F7703C0809180008F7D809380000895F8
:1012600084B58F7702C084B58F7D84BD0895809149
:10127000B0008F7703C08091B0008F7D8093B00065
:101280000895CF93DF9390E0FC01E05EFE4F449120
:10129000FC01EC5CFE4F8491882341F190E0880FC3
:1012A000991FFC01E45AFE4F25913491D9018E5AC1
:1012B0009E4FFC0185919491C82FD92F9FB7F89428
:1012C0008C91611106C0409584238C93888184237E
:1012D00008C0623041F4242F209582238C938881AA
:1012E000842B888302C0842B8C939FBFDF91CF9186
:1012F00008950F931F93CF93DF931F92CDB7DEB75F
:10130000282F30E0F901E45FFE4F8491F901E05E9F
:10131000FE4F1491F901EC5CFE4F04910023D1F0D3
:10132000882321F069830E9417096981E02FF0E08A
:10133000EE0FFF1FEE5AFE4F85919491DC019FB78F
:10134000F8948C91611103C01095812301C0812B09
:101350008C939FBF0F90DF91CF911F910F910895B4
:10136000CF93DF93282F30E0F901E45FFE4F8491A3
:10137000F901E05EFE4FD491F901EC5CFE4FC4919F
:10138000CC2389F081110E941709EC2FF0E0EE0FB9
:10139000FF1FE85BFE4F85919491DC018C918D23BA
:1013A00021E030E011F420E030E0C901DF91CF917D
:1013B00008951F920F920FB60F9211242F933F930F
:1013C0008F939F93AF93BF938091C3029091C40278
:1013D000A091C502B091C6023091CB02232F2A5FA3
:1013E0002D3720F40296A11DB11D05C0232F2757CC
:1013F0000396A11DB11D2093CB028093C30290934D
:10140000C402A093C502B093C6028091C702909116
:10141000C802A091C902B091CA020196A11DB11DD6
:101420008093C7029093C802A093C902B093CA02E6
:10143000BF91AF919F918F913F912F910F900FBED0
:101440000F901F9018950F931F939FB7F8940091DA
:10145000C7021091C8022091C9023091CA0286B514
:10146000A89B06C08F3F21F00F5F1F4F2F4F3F4FAC
:101470009FBF322F212F102F0027080F111D211D74
:10148000311D43E0000F111F221F331F4A95D1F772
:10149000B801C9011F910F910895CF92DF92EF9289
:1014A000FF92CF93DF936B017C010E94230AEB0133
:1014B0000EC00E94230A6C1B7D0B683E734038F0FF
:1014C00081E0C81AD108E108F108C851DC4FC11405
:1014D000D104E104F10469F7DF91CF91FF90EF901F
:1014E000DF90CF900895789484B5826084BD84B5F0
:1014F000816084BD85B5826085BD85B5816085BD0F
:10150000EEE6F0E0808181608083E1E8F0E0108227
:10151000808182608083808181608083E0E8F0E068
:10152000808181608083E1EBF0E080818460808352
:10153000E0EBF0E0808181608083EAE7F0E0808189
:1015400084608083808182608083808181608083E9
:101550008081806880831092C10008958230E8F411
:10156000E82FF0E0EE0FFF1FE453FD4F718360831F
:10157000813041F0809169008C7F842B80936900D9
:10158000E89A089580916900440F551F440F551F34
:10159000837F842B80936900E99A0895823068F4F0
:1015A000813011F0E89801C0E998E82FF0E0EE0FE3
:1015B000FF1FE453FD4F1182108208951F920F9276
:1015C0000FB60F9211242F933F934F935F936F9316
:1015D0007F938F939F93AF93BF93EF93FF938091EC
:1015E000CC029091CD02892B29F0E091CC02F091B0
:1015F000CD020995FF91EF91BF91AF919F918F918E
:101600007F916F915F914F913F912F910F900FBEFE
:101610000F901F9018951F920F920FB60F921124E2
:101620002F933F934F935F936F937F938F939F93EA
:10163000AF93BF93EF93FF938091CE029091CF022F
:10164000892B29F0E091CE02F091CF020995FF910C
:10165000EF91BF91AF919F918F917F916F915F912A
:101660004F913F912F910F900FBE0F901F901895A3
:10167000CF92DF92EF92FF920F931F93CF93DF935E
:101680006C01EB017A01E60EF71E00E010E00BC0E2
:101690006991D601ED91FC910190F081E02DC60198
:1016A0000995080F191FCE15DF0591F7C801DF91C5
:1016B000CF911F910F91FF90EF90DF90CF90089501
:1016C0006115710581F0DB010D900020E9F7AD0196
:1016D00041505109461B570BDC01ED91FC910280F2
:1016E000F381E02D099480E090E00895DC01ED9114
:1016F000FC910190F081E02D09940F931F93CF93FB
:10170000DF93EC016DE00E94760B8C016AE0CE0164
:101710000E94760B9C01200F311FC901DF91CF91F0
:101720001F910F9108950F931F93CF93DF93EC01B7
:101730000E94600B8C01CE010E947D0B9801280F46
:10174000391FC901DF91CF911F910F9108950C941A
:10175000A10D0E94730A0E943C01CCE8DCE00E94CB
:1017600087042097E1F30E948C0CF9CFFC0184855B
:101770009585FC01E05CFF4F20813181FC01EE5B2F
:10178000FF4F80819181281B390B2F733327C901AB
:101790000895FC0184859585FC01E05CFF4F408144
:1017A0005181FC01EE5BFF4F2081318142175307CD
:1017B00041F00190F081E02DE80FF91F208130E029
:1017C00002C02FEF3FEFC9010895FC018485958584
:1017D000FC01E05CFF4F40815181FC01EE5BFF4F5B
:1017E000208131814217530781F0A081B181A80F78
:1017F000B91F8C91208131812F5F3F4F2F73332789
:1018000031832083282F30E002C02FEF3FEFC90142
:101810000895FC0181A1882329F0A489B5898C91C0
:1018200086FFFBCF11A20895CF93DF93FC0126859D
:101830003785D901A05CBF4F8D919C91119701967E
:101840008F739927E901CE5BDF4F48815981841757
:101850009507D9F30D90BC91A02DA20FB31F6C93E7
:10186000A685B785A05CBF4F11969C938E93A689E1
:10187000B7892C9181E090E0078C02C0880F991FF6
:101880000A94E2F7282B2C9381E081A30488F58940
:10189000E02D80818064808381E090E0DF91CF91B2
:1018A000089508951F920F920FB60F9211242F934F
:1018B0003F934F938F939F93EF93FF938091C0003B
:1018C00082FD1CC04091C600809176039091770301
:1018D00001968F73992720917803309179038217AD
:1018E000930771F0E0917603F0917703EA5CFC4F87
:1018F0004083909377038093760302C08091C60063
:10190000FF91EF919F918F914F913F912F910F9068
:101910000FBE0F901F90189580ED92E00E94B60BBD
:10192000892B11F00C94510C08951F920F920FB651
:101930000F9211242F933F938F939F93EF93FF93D5
:101940002091320330913303809134039091350319
:101950002817390731F48091C1008F7D8093C10031
:1019600014C0E0913403F0913503EE50FD4F208117
:10197000809134039091350301968F73992790934A
:101980003503809334032093C600FF91EF919F911C
:101990008F913F912F910F900FBE0F901F90189530
:1019A000CF92DF92EF92FF92CF93DF93EC016A0127
:1019B0007B01EC89FD8981E090E008A002C0880FDE
:1019C000991F0A94E2F7808360E874E88EE190E062
:1019D000A70196010E94E60E2150310941095109E3
:1019E0005695479537952795211580E1380798F04A
:1019F000EC89FD89108260E472E48FE090E0A70139
:101A000096010E94E60E215031094109510956956F
:101A1000479537952795E889F9893083EA89FB89C5
:101A2000208319A2EE89FF89408181E090E09C012A
:101A30000C8C02C0220F331F0A94E2F7422B408322
:101A4000EE89FF8940819C010D8C02C0220F331F5B
:101A50000A94E2F7422B4083EE89FF8940819C0182
:101A60000E8C02C0220F331F0A94E2F7422B4083F0
:101A7000EE89FF8920810F8C02C0880F991F0A947C
:101A8000E2F7809582238083DF91CF91FF90EF90E2
:101A9000DF90CF9008951092D3021092D20288EE78
:101AA00093E0A0E0B0E08093D4029093D502A0939D
:101AB000D602B093D7028DEA91E09093D102809341
:101AC000D00286E393E09093DD028093DC0282EF04
:101AD00092E09093DF028093DE0285EC90E0909399
:101AE000E1028093E00284EC90E09093E302809323
:101AF000E20280EC90E09093E5028093E40281ECB6
:101B000090E09093E7028093E60282EC90E090935D
:101B1000E9028093E80286EC90E09093EB028093D8
:101B2000EA0284E08093EC0283E08093ED0287E098
:101B30008093EE0285E08093EF0281E08093F002D3
:101B400008950F931F93CF93DF938230910510F484
:101B500082E090E0E0917C03F0917D0320E030E0B2
:101B6000C0E0D0E023C04081518148175907A8F058
:101B70004817590761F482819381209719F09B835C
:101B80008A832EC090937D0380937C0329C0211506
:101B9000310529F04217530710F0A90102C0BE0118
:101BA000DF0102811381EF019A01F8013097D9F624
:101BB0002115310509F1281B390B2430310590F42A
:101BC00012968D919C9113976115710521F0FB017F
:101BD0009383828304C090937D0380937C03FD01F3
:101BE000329644C0FD01E20FF31F8193919322507E
:101BF00031092D933C933AC020917A0330917B03B5
:101C0000232B41F4209107013091080130937B038D
:101C100020937A03209105013091060121153105A9
:101C200041F42DB73EB74091090150910A01241BA0
:101C3000350BE0917A03F0917B03E217F307A0F4F0
:101C40002E1B3F0B2817390778F0AC014E5F5F4F12
:101C50002417350748F04E0F5F1F50937B034093C6
:101C60007A038193919302C0E0E0F0E0CF01DF912D
:101C7000CF911F910F910895EF92FF920F931F93B1
:101C8000CF93DF93009709F48FC0DC01129713966E
:101C90001C921E921297E0907C03F0907D03E11459
:101CA000F10489F42D913C911197280F391F8091EF
:101CB0007A0390917B038217930789F5B0937B0396
:101CC000A0937A0371C0E70120E030E001C0EA018F
:101CD000CA17DB0738F44A815B819E014115510523
:101CE000B1F722C0BC0162507109FB01D383C283EA
:101CF00000811181AC01400F511F4C175D0761F449
:101D000048815981400F511F4E5F5F4F518340837F
:101D10004A815B81538342832115310529F4B093B5
:101D20007D03A0937C0340C0F901B383A283E90142
:101D300069917991C60FD71FAC17BD0779F4DC0103
:101D40005E914E91460F571F4E5F5F4F5183408308
:101D500012968D919C91139793838283A0E0B0E0BB
:101D600002C0D7017C01F701828193810097C9F7F6
:101D7000C701029620813181820F931F20917A033F
:101D800030917B032817390779F4109729F41092C2
:101D90007D0310927C0304C013961C921E9212972E
:101DA000F0927B03E0927A03DF91CF911F910F9124
:101DB000FF90EF9008950E94080FA59F900DB49F8B
:101DC000900DA49F800D911D11240895A1E21A2E5B
:101DD000AA1BBB1BFD010DC0AA1FBB1FEE1FFF1FCF
:101DE000A217B307E407F50720F0A21BB30BE40B1F
:101DF000F50B661F771F881F991F1A9469F7609566
:101E00007095809590959B01AC01BD01CF0108951F
:101E1000A29FB001B39FC001A39F01D0B29F700DDC
:101E2000811D1124911D0895EE0FFF1F0590F4915F
:101E3000E02D0994FB01DC0102C001900D9241509C
:101E40005040D8F70895FB01DC0101900D9200206D
:101E5000E1F70895FB01DC014150504030F08D91D5
:101E60000190801919F40020B9F7881B990B089587
:101E7000AEE0B0E0EEE3FFE00C94E4110D891E89C2
:101E800086E08C831A8309838FEF9FE79E838D837F
:101E9000CE014996AC016F89788DCE0101960E94E2
:101EA0005A0FEF81F885E00FF11F10822E96E4E0C3
:101EB0000C940012ACE0B0E0E0E6FFE00C94D61128
:101EC0007C016B018A01FC0117821682838181FFEC
:101ED000C6C188248394912C8C0E9D1EF70193819A
:101EE000F60193FD859193FF81916F01882309F499
:101EF000B2C1853239F493FD859193FF81916F01D1
:101F0000853229F4B70190E00E944C11E7CF512CA3
:101F1000312C20E02032A8F48B3261F028F480329A
:101F200051F0833271F40BC08D3239F0803349F4B3
:101F3000216028C02260246025C0286023C0206161
:101F400021C027FD27C0382F30533A3078F426FFC0
:101F500006C0FAE05F9E300D1124532E13C08AE0B4
:101F6000389E300D1124332E20620CC08E3221F4A5
:101F700026FD71C1206406C08C3611F4206802C0B1
:101F8000883641F4F60193FD859193FF81916F01AD
:101F90008111C0CF982F9554933018F09052933000
:101FA00028F40C5F1F4FFFE3F9830DC0833631F037
:101FB000833771F0833509F05EC023C0F80180815A
:101FC00089830E5F1F4F44244394512C540115C044
:101FD0003801F2E06F0E711CF801A080B18026FF7D
:101FE00003C0652D70E002C06FEF7FEFC5012C8745
:101FF0000E9441112C0183012C856FE7262E22229D
:1020000018C03801F2E06F0E711CF801A080B18099
:1020100026FF03C0652D70E002C06FEF7FEFC501A2
:102020002C870E9436112C012C8550E8252E222A5F
:10203000830123FC1CC006C0B70180E290E00E942F
:102040004C113A94832D90E048165906A8F30FC01E
:10205000F50127FC859127FE81915F01B70190E092
:102060000E944C1131103A94F1E04F1A510841147A
:10207000510471F7EDC0843611F0893641F5F8014D
:1020800027FF07C060817181828193810C5F1F4FA0
:1020900008C060817181882777FD8095982F0E5F39
:1020A0001F4F4FE6B42EB22297FF09C0909580953E
:1020B000709561957F4F8F4F9F4FF0E8BF2A2AE0C0
:1020C00030E0A4010E947811A82EA81843C08537DB
:1020D00031F43FEEB32EB2222AE030E024C099EF73
:1020E000B92EB2228F36B9F020F4883509F0B3C08A
:1020F0000DC0803721F0883709F0ADC002C020E163
:10210000B22AB4FE0BC084E0B82A08C024FF09C07C
:10211000E6E0BE2A06C028E030E005C020E130E05D
:1021200002C020E132E0F801B7FE07C06081718192
:10213000828193810C5F1F4F06C06081718180E0B6
:1021400090E00E5F1F4FA4010E947811A82EA818DE
:10215000FFE7BF22B6FE0BC02B2D2E7FA51450F437
:10216000B4FE0AC0B2FC08C02B2D2E7E05C07A2C0E
:102170002B2D03C07A2C01C0752C24FF0DC0FE014D
:10218000EA0DF11D8081803311F4297E09C022FF00
:1021900006C07394739404C0822F867809F07394F8
:1021A00023FD14C020FF0FC05A2C731460F4530C8D
:1021B0005718732C08C0B70180E290E02C870E946A
:1021C0004C1173942C857314B0F304C0731410F481
:1021D000371801C0312C24FF12C0B70180E390E012
:1021E0002C870E944C112C8522FF1EC021FF03C0AA
:1021F00088E590E002C088E790E0B7010CC0822F2C
:10220000867891F021FD02C080E201C08BE227FDBB
:102210008DE2B70190E00E944C1106C0B70180E347
:1022200090E00E944C115A94A514C0F3AA94F401B2
:10223000EA0DF11DB701808190E00E944C11A110C0
:10224000F5CF06C0B70180E290E00E944C113A94AD
:102250003110F8CF43CEF7012681378102C02FEF2E
:102260003FEFC9012C96E2E10C94F211FC010590BC
:10227000615070400110D8F7809590958E0F9F1F88
:102280000895FC016150704001900110D8F78095CD
:1022900090958E0F9F1F08950F931F93CF93DF93F9
:1022A0008C01EB018B8181FD03C00FEF1FEF1AC082
:1022B00082FF0DC02E813F818C819D8128173907B7
:1022C00064F4E881F9810193F983E88306C0E88525
:1022D000F985802F0995892B41F78E819F81019681
:1022E0009F838E83C801DF91CF911F910F91089535
:1022F000FA01AA27283051F1203181F1E8946F9337
:102300006E7F6E5F7F4F8F4F9F4FAF4FB1E03ED0DC
:10231000B4E03CD0670F781F891F9A1FA11D680F7A
:10232000791F8A1F911DA11D6A0F711D811D911DAD
:10233000A11D20D009F468943F912AE0269F112422
:102340003019305D3193DEF6CF010895462F477086
:10235000405D4193B3E00FD0C9F7F6CF462F4F70E1
:10236000405D4A3318F0495D31FD4052419302D03F
:10237000A9F7EACFB4E0A6959795879577956795E5
:10238000BA95C9F700976105710508959B01AC01E5
:102390000A2E06945795479537952795BA95C9F70C
:1023A000620F731F841F951FA01D08952F923F92E7
:1023B0004F925F926F927F928F929F92AF92BF9255
:1023C000CF92DF92EF92FF920F931F93CF93DF9301
:1023D000CDB7DEB7CA1BDB0B0FB6F894DEBF0FBE5E
:1023E000CDBF09942A88398848885F846E847D84AB
:1023F0008C849B84AA84B984C884DF80EE80FD80AD
:102400000C811B81AA81B981CE0FD11D0FB6F89422
:0E241000DEBF0FBECDBFED010895F894FFCFE3
:10241E00015C01650100007E03800025643A25649D
:10242E002D3E25643A2564203E2573007265736542
:10243E00742E2E2E6F6B2100676574737461747524
:10244E00733A6F6B00636F6E6E656374696E672EA1
:10245E002E2E00636F6E6E6563746564206F6B2144
:10246E000A006765747374617475730067657473BD
:10247E007672746D00636D64340000000000020219
:10248E0062029B016D797532206973206E756C6CDA
:10249E00007265632061636B00320000000000C1B2
:1024AE0005BE059B017468652063686970206964C8
:1024BE003A3078253032780A0000000000140C38CB
:0A24CE000BB60BE50BC90B090C005F
:00000001FF
