:100000000C94B1000C94B5090C94E2090C94D9003D
:100010000C94D9000C94D9000C94D9000C94D900FC
:100020000C94D9000C94D9000C94D9000C94D900EC
:100030000C94D9000C94D9000C94D9000C94D900DC
:100040000C94C0080C94D9000C94290B0C946C0BE4
:100050000C94D9000C94D9000C94D9000C94D900BC
:100060000C94D9000C94D900200F213F223F230388
:1000700024FF251726072707280029002CC32DC495
:100080002EC52FC631203220332034203520362093
:1000900037203C3F3D072A34431010012B393837B5
:1000A00036C2303443101001507320404B01E2211E
:1000B000C04B000022D0FC8C02239900394124D986
:1000C0009E860B2524067FA6260000000027000040
:1000D0000000280000000029000000002A000000A5
:1000E000002B000000002C001273052D36B4800098
:1000F0002E412008048120CFF7FEFFFF24DF9E86DB
:100100000B24D99E860B5053E200E100000000074B
:1001100000020100000304060000000000000000CF
:10012000010204081020408001020408102001028E
:10013000040810200404040404040404020202025B
:10014000020203030303030300000000250028004C
:100150002B0000000000240027002A006001EE01AF
:10016000220C11241FBECFEFD8E0DEBFCDBF11E0BF
:10017000A0E0B1E0E6EEF1E202C005900D92AE3BE8
:10018000B107D9F713E0AEEBB1E001C01D92A43581
:10019000B107E1F711E0C2E6D1E004C02297FE0109
:1001A0000E94ED0DCC35D107C9F70E94800A0C944E
:1001B000F1100C940000CF93DF938CE692E00E9444
:1001C0008406EC0104969F938F932B81822F9927AD
:1001D00087FD90959F932F932A81822F992787FDE2
:1001E00090959F932F932981822F992787FD909532
:1001F0009F932F932881822F992787FD90959F9316
:100200002F9386E091E09F938F938EEB91E09F93E5
:100210008F930E941C0E6EEB71E080EA92E00E94C8
:100220006A0A8CE692E00E9489062DB73EB7225FEB
:100230003F4F0FB6F8943EBF0FBE2DBF482FBE01F3
:100240008EED91E0DF91CF910C94F4028CE692E078
:100250000C94600640E855E260E070E080EA92E0CD
:100260000E94A70B67E171E080EA92E00E946A0AAF
:100270004AE563E08EED91E00E94600341E561E0B4
:100280008EED91E00E9464038CE692E00E945C0691
:100290006BED70E08CE692E00E947F0642E050E059
:1002A00066E271E080E00E94950980910C029091D5
:1002B0000D02DC01ED91FC910280F381E02D0994A7
:1002C000CF93DF938BE290E00E947E0AEC010E94C4
:1002D000A501D0930D02C0930C029E014CE652E0A2
:1002E00060E08EED91E0DF91CF910C944E0280E0C2
:1002F00090E008950895FF920F931F93CF93DF939B
:100300008C01EB01F42E63E271E080EA92E00E943E
:100310006A0AF80187A190A5019789F44F2DBE01C3
:1003200080E392E00E94F0064F2DBE018EE092E045
:10033000DF91CF911F910F91FF900C94FC01DF9101
:10034000CF911F910F91FF900895CF93DF93EC0110
:100350000E946C038BE691E09983888381E090E0B2
:100360009AA789A718A61FA22696EC2FFD2F80E238
:10037000DF011D928A95E9F7DF91CF910895CF9320
:10038000DF93EC01BC0180E392E00E944A0268E343
:1003900071E080EA92E00E946A0A8A819B810E9451
:1003A000B902811107C060ED77E080E090E00E9423
:1003B0003409F3CF66E471E080EA92E00E946A0AB1
:1003C00081E090E098A78FA3DF91CF9108950E94DC
:1003D000BF0162E083E00E945108089565E571E085
:1003E00080E392E00E943C024AE751E06DE571E053
:1003F0008EE092E00C942502CF93DF93EC0188818C
:100400009981FC01DF010D900020E9F7AD01415019
:1004100051094E1B5F0B6B5F7F4F0E94FA0D8111DC
:1004200005C0E8A1F9A1DF91CF910994DF91CF91A7
:1004300008959C012D5F3F4FF9012CE1DF011D92D2
:100440002A95E9F7FC01178E0895FC01128251A349
:1004500040A3718360830C9419020895BC016E5F00
:100460007F4FDC01DA96ED91FC91DB9752964C912F
:10047000828193810C948402CF93DF93EC010E94DC
:100480005D0785E791E0998388831BAE1AAEDF9103
:10049000CF910895FC0173AF62AF0895CF93DF93BE
:1004A000FC01C9016783613011F420EF01C020EE27
:1004B00020879F01265F3F4FD90120E2ED0119926D
:1004C0002A95E9F793A782A755A744A7BF01DF9113
:1004D000CF910C947203FC01DB019C9183819813F2
:1004E00011C011969C911197848198130BC012969C
:1004F0009C9112978581981305C081E013962C91E9
:100500009681291380E00895FF920F931F93CF9354
:10051000DF93CDB7DEB7A0970FB6F894DEBF0FBE5E
:10052000CDBF8C01F42EFC018581898386818A836D
:1005300083818B8384818C839E012B5F3F4F50E0AE
:10054000C9010E94F10D4F2D4C5FBE016F5F7F4FBF
:10055000F80184A595A50E948C06A0960FB6F89484
:10056000DEBF0FBECDBFDF91CF911F910F91FF90E6
:1005700008950F931F93CF93DF9300D000D01F9265
:10058000CDB7DEB78C01FC018581898386818A83A2
:1005900083818B8384818C8381E38D8345E0BE01DD
:1005A0006F5F7F4F84A595A50E948C066AE070E07E
:1005B00080E090E00E94340921E030E0F80180857D
:1005C000813E11F020E030E0C9010F900F900F90B4
:1005D0000F900F90DF91CF911F910F91089541E0FF
:1005E00069E771E00C948402EF92FF920F931F93DE
:1005F000CF93DF931F92CDB7DEB77C018C01065FEE
:100600001F4F80E2FB01D80101900D928A95E1F71E
:10061000B801C70149830E946B024981882309F40C
:1006200047C0D70117968C911797813009F51E9610
:100630002C911E971B968C911B971A969C911A973A
:10064000213359F413969C93139714968C93C701F6
:100650000E94EF0281EFF70115C0D70113969C931A
:10066000139714968C93149781EF18968C930CC063
:1006700081110AC0F7018085803E31F4868582337E
:10068000B9F481EE808714C0D7019A968D919C9120
:100690009B97DC01ED91FC910190F081E02DB80178
:1006A0000F90DF91CF911F910F91FF90EF900994E0
:1006B0000F90DF91CF911F910F91FF90EF900895D0
:1006C000FC01658346830895FC0163834483089598
:1006D00080E090E0089508952FE731E0FC01318338
:1006E00020830895FC01738362830895EF92FF9243
:1006F0001F93CF93DF931F92CDB7DEB77C01162FE8
:1007000061E08DE049830E94510861E08BE00E9426
:10071000510860E08CE00E94510861E0812F0E9446
:10072000510860E08BE00E94890860E08DE00E9443
:10073000890861E0812F0E94890880E58CBD9CB505
:100740004981842F83709C7F892B8CBD9DB542FB92
:10075000442740F99E7F942B9DBDF70110830F9095
:10076000DF91CF911F91FF90EF9008951F93CF934A
:10077000DF931F92CDB7DEB7162FFC01618361E0D6
:10078000812F49830E94510860E0812F0E948908CF
:1007900060E04981842F0F90DF91CF911F910C94DD
:1007A00051088EBD0DB407FEFDCF8EB50895CF92D2
:1007B000DF92EF92FF920F931F93CF93DF931F92DD
:1007C000CDB7DEB78C01E62EF42E60E0FC0180810F
:1007D00079830E948908CE2C7981D72EFE0C07C020
:1007E000F6018FEFC81AD80A84910E94D103FC1039
:1007F000F7CF61E0F80180810E9489080F90DF91B6
:10080000CF911F910F91FF90EF90DF90CF900895BF
:1008100042E06AE071E00C94D703EF92FF921F93DD
:10082000CF93DF931F92CDB7DEB77C01162F60E028
:10083000FC01808149830E948908812F0E94D10395
:100840004981842F0E94D10361E0F70180810E94D9
:1008500089080F90DF91CF911F91FF90EF9008953D
:10086000CF92DF92EF92FF920F931F93CF93DF937C
:100870001F92CDB7DEB78C01D62EF42EE22E60E0AB
:10088000FC01808159830E9489088D2D0E94D1032B
:10089000CF2C5981D52E06C080E00E94D103F601ED
:1008A00081936F018C2D8F198E15B0F361E0F801E3
:1008B00080810F90DF91CF911F910F91FF90EF906A
:1008C000DF90CF900C9489081F93CF93DF93EC01B6
:1008D000162F60E088810E948908812F0E94D10331
:1008E00080E00E94D103182F61E088810E9489086E
:1008F000812FDF91CF911F910895EF92FF920F9377
:100900001F93CF93DF93EC018B0167E00E94640497
:10091000E82E86FF18C060E6CE010E946404F82E1F
:10092000282FA80161E6CE010E94300467E1CE01C4
:100930000E94640480FF08C04E2D406467E2CE012F
:100940000E940D0401C0F12C8F2DDF91CF911F91DA
:100950000F91FF90EF90089567E00E94640480710A
:100960000895CF93DF93EC0167E00E946404482F61
:10097000406167E2CE01DF91CF910C940D04CF93DB
:10098000DF93EC0167E00E946404482F406267E255
:10099000CE01DF91CF910C940D04CF93DF93EC0146
:1009A00067E00E946404482F406467E2CE01DF9153
:1009B000CF910C940D04CF93DF93EC0142E06AE0F9
:1009C00071E00E94D70360E089810E94890860E09D
:1009D000CE010E946404482F4E7F60E2CE010E9447
:1009E0000D0461E08981DF91CF910C948908CF9348
:1009F000DF93EC0142E068E071E00E94D70367E01A
:100A0000CE010E946404482F67E2CE010E940D04CB
:100A100060E089810E94890860E0CE010E94640440
:100A2000482F416060E2CE010E940D0461E089819F
:100A3000DF91CF910C9489081F93CF93DF93EC0142
:100A4000162F67E00E9464048078112359F0811109
:100A50000BC042E066E071E0CE01DF91CF911F91C3
:100A60000C94D7038111F5CFDF91CF911F91089599
:100A7000DF92EF92FF920F931F93CF93DF93CDB747
:100A8000DEB764970FB6F894DEBF0FBECDBF8C0102
:100A900060E00E941C05E12CF12CB701660F771F66
:100AA000FB01E759FF4F4491FB01E859FF4F649167
:100AB000C8010E940D048FEFE81AF80A84E1E816D5
:100AC000F10459F746E066E970E0C8010E94D703D7
:100AD00046E06CE970E0C8010E94D70346E062EA94
:100AE00070E0C8010E94D7036DE1C8010E94640450
:100AF000811106C042E068EA70E0C8010E94D70395
:100B0000E5E9F0E04491E4E9F0E06491C8010E9475
:100B10000D04E3E9F0E04491E2E9F0E06491C801FA
:100B20000E940D0461E0C8010E941C05E12CF12C1B
:100B300035E0D32EDE9CB001DF9C700D112466558C
:100B40007F4F45E0C8010E94D7038FEFE81AF80AEB
:100B50008EE0E816F10471F74CE060EF70E0C80138
:100B60000E94D70345E06CEF70E0C8010E94D703F4
:100B700045E061E071E0C8010E94D70364E670E0DF
:100B800080E090E00E94340968E0C8010E9464049B
:100B900068E0C8010E9464041F928F9385E891E089
:100BA0009F938F93EE24E394F12CEC0EFD1EFF92A5
:100BB000EF920E941C0EB70180EA92E00E946A0A3E
:100BC00060E0C8010E941C05C8010E94F7040F9054
:100BD0000F900F900F900F900F9064960FB6F894AF
:100BE000DEBF0FBECDBFDF91CF911F910F91FF9060
:100BF000EF90DF900895EF92FF920F93CF93DF93E2
:100C00001F92CDB7DEB77C0129830E94B603402F27
:100C10002981622FC7010E94760368EB70E080E0B3
:100C200090E00E943409C7010F90DF91CF910F919E
:100C3000FF90EF900C9438050F9304E02AE00E9497
:100C4000FB050F910895DF92EF92FF920F931F9390
:100C5000CF93DF938C01F62ED72EE42EC22F67E1BF
:100C60000E94640485FD1CC060E0F80180810E9440
:100C70008908C11107C080EB0E94D103CF2DDD2D63
:100C8000FE0C05C080EAF8CF89910E94D103FC12C6
:100C9000FBCF61E0F80180810E94890881E001C0FA
:100CA00080E0DF91CF911F910F91FF90EF90DF9047
:100CB000089520E00C94230642E068E00C941C06A2
:100CC000CF93DF93EC01BC016E5F7F4F0E947D04E8
:100CD000803240F08AA3E0918F02F0919002309729
:100CE00041F40AC0FE01E80FF11D1282882321F0B1
:100CF000F1CFDF91CF910994DF91CF910895709357
:100D0000900260938F0208959C012E5F3F4FC901AE
:100D10000895FC0182A10895EF92FF920F931F9313
:100D2000CF93DF931F92CDB7DEB77C018B01498350
:100D30000E94BF04C7010E94DB04C7010E94AC04EB
:100D40004981882339F0C7010E940804C7010E9425
:100D5000B1044981B801C7010E9459068DEF91E0A5
:100D60000197F1F700C00000C7010E94CD04C70140
:100D70000F90DF91CF911F910F91FF90EF900C9406
:100D8000F70408950895CF93DF93EC018C898130A7
:100D9000E9F48F898F5F8F8B1F928F9389E991E0A0
:100DA0009F938F930E94080EE881F9810280F3815E
:100DB000E02DCE0109950F900F900F900F908F8925
:100DC0008A3050F01F8A1C8A82E005C0823021F4EC
:100DD0001C8A1F8A81E0888F81E0DF91CF9108957E
:100DE000FF920F931F93CF93DF93EC018B01F42EAF
:100DF0000296FC0101900020E9F7AF014150510932
:100E0000481B590B6C5F7F4F0E94FA0D81111DC06A
:100E10008C898130D1F482E08C8B9E01275E3F4F1C
:100E20004F2D50E0B801C9010E94F10DF9AEE881E3
:100E3000F9810190F081E02D4F2DB801CE01DF91B5
:100E4000CF911F910F91FF900994DF91CF911F9146
:100E50000F91FF900895EF92FF920F931F93CF93FE
:100E6000DF93CDB7DEB764970FB6F894DEBF0FBE41
:100E7000CDBFFC01E588F6888C0123EC36E046E422
:100E800050E060E070E0CE0101960E947F0784E1AF
:100E9000FE013196D70101900D928A95E1F781E02C
:100EA00064960FB6F894DEBF0FBECDBFDF91CF9131
:100EB0001F910F91FF90EF900895CF93DF93FC0166
:100EC0008AEA91E091838083178A148A108ECF0179
:100ED0004996DC0180E2ED0119928A95E9F711AE9D
:100EE000CF01DF91CF910C942B07DC011C96ED9183
:100EF000FC911D9752968D919C9153970994AF92B6
:100F0000BF92CF92DF92EF92FF920F931F93CF93F6
:100F1000DF93EC016A017B01590125E737E00E946C
:100F20000E08BD86AC86CE86DF86E88AF98A1B8BE2
:100F30000A8BDF91CF911F910F91FF90EF90DF907F
:100F4000CF90BF90AF900895CF92DF92EF92FF9233
:100F5000CF93DF93EB010E940A096B017C014C8166
:100F60005D816E817F8188819981AA81BB81480FD3
:100F7000591F6A1F7B1FC416D506E606F70690F0B8
:100F80008C819D81AE81BF81481759076A077B0715
:100F9000D8F48C819D81AE81BF81C816D906EA063E
:100FA000FB0690F08C819D81AE81BF81C816D90669
:100FB000EA06FB0688F48C819D81AE81BF814817CB
:100FC00059076A077B0740F0E885F985CE01099546
:100FD000CC82DD82EE82FF82DF91CF91FF90EF9095
:100FE000DF90CF9008950F931F93CF93DF938C01E1
:100FF000FC01C081D18107C0BE01C8010E94A407C5
:101000000A84DB85C02D2097B9F7DF91CF911F911E
:101010000F91089581E992E00C94F307CF93DF9349
:10102000FC01E901A8EEB3E09A01AB010E94B20D08
:101030006083718382839383D187C08714821582F2
:101040001682178213861286DF91CF91089583301E
:1010500069F028F48130A1F0823011F514C0863097
:10106000B1F08730C1F08430D9F404C080918000A1
:101070008F7703C0809180008F7D809380000895DA
:1010800084B58F7702C084B58F7D84BD089580912B
:10109000B0008F7703C08091B0008F7D8093B00047
:1010A0000895CF93DF9390E0FC01E05EFE4F449102
:1010B000FC01EC5CFE4F8491882341F190E0880FA5
:1010C000991FFC01EE5AFE4F25913491D901885B9E
:1010D0009E4FFC0185919491C82FD92F9FB7F8940A
:1010E0008C91611106C0409584238C938881842360
:1010F00008C0623041F4242F209582238C9388818C
:10110000842B888302C0842B8C939FBFDF91CF9167
:1011100008950F931F93CF93DF931F92CDB7DEB740
:10112000282F30E0F901E45FFE4F8491F901E05E81
:10113000FE4F1491F901EC5CFE4F04910023D1F0B5
:10114000882321F069830E9427086981E02FF0E05D
:10115000EE0FFF1FE85BFE4F85919491DC019FB776
:10116000F8948C91611103C01095812301C0812BEB
:101170008C939FBF0F90DF91CF911F910F91089596
:101180001F920F920FB60F9211242F933F938F93BC
:101190009F93AF93BF938091930290919402A091FB
:1011A0009502B091960230919B02232F2A5F2D3732
:1011B00020F40296A11DB11D05C0232F27570396C9
:1011C000A11DB11D20939B028093930290939402E2
:1011D000A0939502B0939602809197029091980205
:1011E000A0919902B0919A020196A11DB11D809320
:1011F000970290939802A0939902B0939A02BF919C
:10120000AF919F918F913F912F910F900FBE0F90B3
:101210001F9018950F931F939FB7F8940091970212
:10122000109198022091990230919A0286B5A89B5C
:1012300006C08F3F21F00F5F1F4F2F4F3F4F9FBFC3
:10124000322F212F102F0027080F111D211D311DB6
:1012500043E0000F111F221F331F4A95D1F7B80139
:10126000C9011F910F910895CF92DF92EF92FF92E3
:10127000CF93DF936B017C010E940A09EB010EC042
:101280000E940A096C1B7D0B683E734038F081E0B8
:10129000C81AD108E108F108C851DC4FC114D104C3
:1012A000E104F10469F7DF91CF91FF90EF90DF90B7
:1012B000CF900895789484B5826084BD84B58160B0
:1012C00084BD85B5826085BD85B5816085BDEEE64E
:1012D000F0E0808181608083E1E8F0E0108280812D
:1012E00082608083808181608083E0E8F0E080819B
:1012F00081608083E1EBF0E0808184608083E0EBBB
:10130000F0E0808181608083EAE7F0E080818460A2
:1013100080838081826080838081816080838081FE
:10132000806880831092C10008958230E8F4E82F2D
:10133000F0E0EE0FFF1FE456FD4F718360838130B4
:1013400041F0809169008C7F842B80936900E89A3A
:10135000089580916900440F551F440F551F837FE6
:10136000842B80936900E99A08951F920F920FB61B
:101370000F9211242F933F934F935F936F937F931B
:101380008F939F93AF93BF93EF93FF9380919C02B2
:1013900090919D02892B29F0E0919C02F0919D0291
:1013A0000995FF91EF91BF91AF919F918F917F919F
:1013B0006F915F914F913F912F910F900FBE0F90C2
:1013C0001F9018951F920F920FB60F9211242F9312
:1013D0003F934F935F936F937F938F939F93AF93BD
:1013E000BF93EF93FF9380919E0290919F02892B70
:1013F00029F0E0919E02F0919F020995FF91EF91F3
:10140000BF91AF919F918F917F916F915F914F911C
:101410003F912F910F900FBE0F901F901895CF9274
:10142000DF92EF92FF920F931F93CF93DF936C01A4
:10143000EB017A01E60EF71E00E010E00BC06991A7
:10144000D601ED91FC910190F081E02DC601099546
:10145000080F191FCE15DF0591F7C801DF91CF9155
:101460001F910F91FF90EF90DF90CF90089561153D
:10147000710581F0DB010D900020E9F7AD014150CD
:101480005109461B570BDC01ED91FC910280F38161
:10149000E02D099480E090E00895DC01ED91FC914D
:1014A0000190F081E02D09940F931F93CF93DF9368
:1014B000EC016DE00E944D0A8C016AE0CE010E94B1
:1014C0004D0A9C01200F311FC901DF91CF911F915F
:1014D0000F9108950F931F93CF93DF93EC010E9418
:1014E000370A8C01CE010E94540A9801280F391F37
:1014F000C901DF91CF911F910F9108950C94780C41
:101500000E945A090E942A01C3E6DBE00E940A08F1
:101510002097E1F30E94630BF9CFFC018485958548
:10152000FC01E05CFF4F20813181FC01EE5BFF4F4D
:1015300080819181281B390B2F733327C9010895AE
:10154000FC0184859585FC01E05CFF4F4081518161
:10155000FC01EE5BFF4F208131814217530741F0C0
:101560000190F081E02DE80FF91F208130E002C0EA
:101570002FEF3FEFC9010895FC0184859585FC019B
:10158000E05CFF4F40815181FC01EE5BFF4F208109
:1015900031814217530781F0A081B181A80FB91F93
:1015A0008C91208131812F5F3F4F2F7333273183FF
:1015B0002083282F30E002C02FEF3FEFC9010895AC
:1015C000FC0181A1882329F0A489B5898C9186FF2B
:1015D000FBCF11A20895CF93DF93FC0126853785B9
:1015E000D901A05CBF4F8D919C91119701968F738B
:1015F0009927E901CE5BDF4F488159818417950710
:10160000D9F30D90BC91A02DA20FB31F6C93A685AA
:10161000B785A05CBF4F11969C938E93A689B7891E
:101620002C9181E090E0078C02C0880F991F0A94EA
:10163000E2F7282B2C9381E081A30488F589E02D23
:1016400080818064808381E090E0DF91CF91089574
:1016500008951F920F920FB60F9211242F933F936C
:101660004F938F939F93EF93FF938091C00082FDE0
:101670001CC04091C600809146039091470301969B
:101680008F7399272091480330914903821793075C
:1016900071F0E0914603F0914703EA5FFC4F40830D
:1016A000909347038093460302C08091C600FF9148
:1016B000EF919F918F914F913F912F910F900FBE7E
:1016C0000F901F90189580EA92E00E948D0A892B56
:1016D00011F00C94280B08951F920F920FB60F92E1
:1016E00011242F933F938F939F93EF93FF93209118
:1016F000020330910303809104039091050328179E
:10170000390731F48091C1008F7D8093C10014C0EE
:10171000E0910403F0910503EE53FD4F2081809189
:1017200004039091050301968F7399279093050305
:10173000809304032093C600FF91EF919F918F91B6
:101740003F912F910F900FBE0F901F901895CF9241
:10175000DF92EF92FF92CF93DF93EC016A017B015E
:10176000EC89FD8981E090E008A002C0880F991FF4
:101770000A94E2F7808360E874E88EE190E0A701C4
:1017800096010E94BD0D215031094109510956951C
:10179000479537952795211580E1380798F0EC8912
:1017A000FD89108260E472E48FE090E0A701960169
:1017B0000E94BD0D215031094109510956954795A7
:1017C00037952795E889F9893083EA89FB89208351
:1017D00019A2EE89FF89408181E090E09C010C8C88
:1017E00002C0220F331F0A94E2F7422B4083EE8996
:1017F000FF8940819C010D8C02C0220F331F0A9487
:10180000E2F7422B4083EE89FF8940819C010E8CD8
:1018100002C0220F331F0A94E2F7422B4083EE8965
:10182000FF8920810F8C02C0880F991F0A94E2F76C
:10183000809582238083DF91CF91FF90EF90DF909E
:10184000CF9008951092A3021092A20288EE93E026
:10185000A0E0B0E08093A4029093A502A093A6021A
:10186000B093A70282EB91E09093A1028093A00233
:1018700086E093E09093AD028093AC0282EC92E01C
:101880009093AF028093AE0285EC90E09093B1020A
:101890008093B00284EC90E09093B3028093B20204
:1018A00080EC90E09093B5028093B40281EC90E0DC
:1018B0009093B7028093B60282EC90E09093B902C5
:1018C0008093B80286EC90E09093BB028093BA02BA
:1018D00084E08093BC0283E08093BD0287E0809324
:1018E000BE0285E08093BF0281E08093C00208952C
:1018F0000F931F93CF93DF938230910510F482E012
:1019000090E0E0914C03F0914D0320E030E0C0E026
:10191000D0E023C04081518148175907A8F04817EB
:10192000590761F482819381209719F09B838A8300
:101930002EC090934D0380934C0329C0211531058F
:1019400029F04217530710F0A90102C0BE01DF01C0
:1019500002811381EF019A01F8013097D9F6211520
:10196000310509F1281B390B2430310590F412960A
:101970008D919C9113976115710521F0FB01938363
:10198000828304C090934D0380934C03FD013296F3
:1019900044C0FD01E20FF31F81939193225031095E
:1019A0002D933C933AC020914A0330914B03232B53
:1019B00041F4209102013091030130934B032093B5
:1019C0004A0320910001309101012115310541F4B4
:1019D0002DB73EB74091040150910501241B350BF2
:1019E000E0914A03F0914B03E217F307A0F42E1B9A
:1019F0003F0B2817390778F0AC014E5F5F4F241773
:101A0000350748F04E0F5F1F50934B0340934A0336
:101A10008193919302C0E0E0F0E0CF01DF91CF919C
:101A20001F910F910895EF92FF920F931F93CF9301
:101A3000DF93009709F48FC0DC01129713961C9274
:101A40001E921297E0904C03F0904D03E114F104C4
:101A500089F42D913C911197280F391F80914A03E9
:101A600090914B038217930789F5B0934B03A09392
:101A70004A0371C0E70120E030E001C0EA01CA1763
:101A8000DB0738F44A815B819E0141155105B1F7AE
:101A900022C0BC0162507109FB01D383C283008163
:101AA0001181AC01400F511F4C175D0761F4488153
:101AB0005981400F511F4E5F5F4F518340834A81D0
:101AC0005B81538342832115310529F4B0934D0383
:101AD000A0934C0340C0F901B383A283E90169914B
:101AE0007991C60FD71FAC17BD0779F4DC015E9161
:101AF0004E91460F571F4E5F5F4F518340831296A2
:101B00008D919C91139793838283A0E0B0E002C0F3
:101B1000D7017C01F701828193810097C9F7C70142
:101B2000029620813181820F931F20914A033091C8
:101B30004B032817390779F4109729F410924D03B5
:101B400010924C0304C013961C921E921297F092AE
:101B50004B03E0924A03DF91CF911F910F91FF90C9
:101B6000EF9008950E94DF0DA59F900DB49F900DFA
:101B7000A49F800D911D11240895A1E21A2EAA1B85
:101B8000BB1BFD010DC0AA1FBB1FEE1FFF1FA2172D
:101B9000B307E407F50720F0A21BB30BE40BF50B2A
:101BA000661F771F881F991F1A9469F760957095B3
:101BB000809590959B01AC01BD01CF010895A29F36
:101BC000B001B39FC001A39F01D0B29F700D811DD2
:101BD0001124911D0895EE0FFF1F0590F491E02D43
:101BE0000994FB01DC0102C001900D92415050406C
:101BF000D8F70895FB01DC014150504030F08D9141
:101C00000190801919F40020B9F7881B990B0895E9
:101C1000A0E0B0E0EEE0FEE00C94CA10FE013596C4
:101C200061917191AF0180915003909151030E9495
:101C30003E0EE2E00C94E610AEE0B0E0E2E2FEE040
:101C40000C94C8100D891E8986E08C831A83098341
:101C50008FEF9FE79E838D83CE014996AC016F89FC
:101C6000788DCE0101960E943E0EEF81F885E00F3F
:101C7000F11F10822E96E4E00C94E410ACE0B0E08A
:101C8000E4E4FEE00C94BA107C016B018A01FC01D3
:101C900017821682838181FFC6C188248394912C88
:101CA0008C0E9D1EF7019381F60193FD859193FFA4
:101CB00081916F01882309F4B2C1853239F493FD13
:101CC000859193FF81916F01853229F4B70190E0EE
:101CD0000E943010E7CF512C312C20E02032A8F4A4
:101CE0008B3261F028F4803251F0833271F40BC0F2
:101CF0008D3239F0803349F4216028C0226024609D
:101D000025C0286023C0206121C027FD27C0382FAF
:101D100030533A3078F426FF06C0FAE05F9E300D6B
:101D20001124532E13C08AE0389E300D1124332E17
:101D300020620CC08E3221F426FD71C1206406C0E1
:101D40008C3611F4206802C0883641F4F60193FD08
:101D5000859193FF81916F018111C0CF982F955488
:101D6000933018F09052933028F40C5F1F4FFFE32C
:101D7000F9830DC0833631F0833771F0833509F074
:101D80005EC023C0F801808189830E5F1F4F442409
:101D90004394512C540115C03801F2E06F0E711CB0
:101DA000F801A080B18026FF03C0652D70E002C05D
:101DB0006FEF7FEFC5012C870E9425102C01830156
:101DC0002C856FE7262E222218C03801F2E06F0E14
:101DD000711CF801A080B18026FF03C0652D70E062
:101DE00002C06FEF7FEFC5012C870E941A102C01F3
:101DF0002C8550E8252E222A830123FC1CC006C016
:101E0000B70180E290E00E9430103A94832D90E078
:101E100048165906A8F30FC0F50127FC859127FE47
:101E200081915F01B70190E00E94301031103A9427
:101E3000F1E04F1A51084114510471F7EDC0843696
:101E400011F0893641F5F80127FF07C060817181E3
:101E5000828193810C5F1F4F08C060817181882748
:101E600077FD8095982F0E5F1F4F4FE6B42EB2225C
:101E700097FF09C090958095709561957F4F8F4F22
:101E80009F4FF0E8BF2A2AE030E0A4010E945C10D6
:101E9000A82EA81843C0853731F43FEEB32EB222E6
:101EA0002AE030E024C099EFB92EB2228F36B9F083
:101EB00020F4883509F0B3C00DC0803721F0883791
:101EC00009F0ADC002C020E1B22AB4FE0BC084E02C
:101ED000B82A08C024FF09C0E6E0BE2A06C028E0F0
:101EE00030E005C020E130E002C020E132E0F8013E
:101EF000B7FE07C060817181828193810C5F1F4FA3
:101F000006C06081718180E090E00E5F1F4FA401E8
:101F10000E945C10A82EA818FFE7BF22B6FE0BC0D7
:101F20002B2D2E7FA51450F4B4FE0AC0B2FC08C0BD
:101F30002B2D2E7E05C07A2C2B2D03C07A2C01C0B0
:101F4000752C24FF0DC0FE01EA0DF11D8081803348
:101F500011F4297E09C022FF06C07394739404C053
:101F6000822F867809F0739423FD14C020FF0FC0E0
:101F70005A2C731460F4530C5718732C08C0B70113
:101F800080E290E02C870E94301073942C857314AB
:101F9000B0F304C0731410F4371801C0312C24FFBF
:101FA00012C0B70180E390E02C870E9430102C858E
:101FB00022FF1EC021FF03C088E590E002C088E731
:101FC00090E0B7010CC0822F867891F021FD02C00D
:101FD00080E201C08BE227FD8DE2B70190E00E9414
:101FE000301006C0B70180E390E00E9430105A9490
:101FF000A514C0F3AA94F401EA0DF11DB701808184
:1020000090E00E943010A110F5CF06C0B70180E229
:1020100090E00E9430103A943110F8CF43CEF7018F
:102020002681378102C02FEF3FEFC9012C96E2E1F4
:102030000C94D610FC010590615070400110D8F747
:10204000809590958E0F9F1F0895FC016150704000
:1020500001900110D8F7809590958E0F9F1F0895DD
:102060000F931F93CF93DF938C01EB018B8181FD45
:1020700003C00FEF1FEF1AC082FF0DC02E813F81FA
:102080008C819D812817390764F4E881F9810193D7
:10209000F983E88306C0E885F985802F0995892BA7
:1020A00041F78E819F8101969F838E83C801DF91C6
:1020B000CF911F910F910895FA01AA27283051F16D
:1020C000203181F1E8946F936E7F6E5F7F4F8F4F69
:1020D0009F4FAF4FB1E03ED0B4E03CD0670F781FC8
:1020E000891F9A1FA11D680F791F8A1F911DA11DAD
:1020F0006A0F711D811D911DA11D20D009F46894E6
:102100003F912AE0269F11243019305D3193DEF68D
:10211000CF010895462F4770405D4193B3E00FD043
:10212000C9F7F6CF462F4F70405D4A3318F0495D2E
:1021300031FD4052419302D0A9F7EACFB4E0A69511
:102140009795879577956795BA95C9F70097610533
:10215000710508959B01AC010A2E06945795479589
:1021600037952795BA95C9F7620F731F841F951F7E
:10217000A01D08952F923F924F925F926F927F928F
:102180008F929F92AF92BF92CF92DF92EF92FF9287
:102190000F931F93CF93DF93CDB7DEB7CA1BDB0B33
:1021A0000FB6F894DEBF0FBECDBF09942A883988D8
:1021B00048885F846E847D848C849B84AA84B984DF
:1021C000C884DF80EE80FD800C811B81AA81B981EB
:1021D000CE0FD11D0FB6F894DEBF0FBECDBFED01FF
:0621E0000895F894FFCF02
:1021E60000005403800025643A25642D3E25643A98
:1021F6002564203E25730072657365742E2E2E6F3E
:102206006B210075323A3A726563656976655F6C73
:10221600697374656E657200636F6E6E656374696B
:102226006E672E2E2E00636F6E6E65637465642076
:102236006F6B210A0067657474656D70006765745D
:1022460073746174757300000000007B01E7017709
:1022560001000000002D022E023200000000006B7B
:102266000368037701746865206368697020696490
:102276003A3078253032780A0073656E64207472BD
:10228600793A25640A0000000000C206C106000073
:0E2296000000EB0A0F0A8D0ABC0AA00AE00A3B
:00000001FF
